8=FIX.4.2|9=80|35=A|34=1|49=CLIENT1|52=20210727-03:54:34.890000|56=SIMULADOR.ORDEM|98=0|108=30|10=218|8=FIX.4.2|9=134|35=D|34=2|49=CLIENT1|52=20210727-03:54:47.561000|56=SIMULADOR.ORDEM|11=1|21=1|38=100|40=2|44=100|54=1|55=rs|59=0|60=20210727-03:54:47|10=046|8=FIX.4.2|9=126|35=F|34=3|49=CLIENT1|52=20210727-03:54:53.833000|56=SIMULADOR.ORDEM|11=2|41=1|54=1|55=rs|58=Order cancel|60=20210727-03:54:53|10=061|8=FIX.4.2|9=142|35=3|34=4|49=CLIENT1|52=20210727-03:54:53.836000|56=SIMULADOR.ORDEM|45=3|58=Value is incorrect (out of range) for this tag|371=20|372=8|373=5|10=048|8=FIX.4.2|9=126|35=F|34=5|49=CLIENT1|52=20210727-03:54:56.705000|56=SIMULADOR.ORDEM|11=4|41=0|54=1|55=rs|58=Order cancel|60=20210727-03:54:56|10=068|8=FIX.4.2|9=80|35=A|34=6|49=CLIENT1|52=20210727-03:55:01.114000|56=SIMULADOR.ORDEM|98=0|108=30|10=207|8=FIX.4.2|9=80|35=A|34=7|49=CLIENT1|52=20210727-03:55:04.131000|56=SIMULADOR.ORDEM|98=0|108=30|10=210|8=FIX.4.2|9=80|35=A|34=8|49=CLIENT1|52=20210727-03:55:07.150000|56=SIMULADOR.ORDEM|98=0|108=30|10=215|8=FIX.4.2|9=80|35=A|34=9|49=CLIENT1|52=20210727-03:55:10.158000|56=SIMULADOR.ORDEM|98=0|108=30|10=218|