8=FIX.4.2|9=80|35=A|34=1|49=CLIENT1|52=20210727-18:35:21.133000|56=SIMULADOR.ORDEM|98=0|108=30|10=209|8=FIX.4.2|9=80|35=A|34=2|49=CLIENT1|52=20210727-18:35:24.150000|56=SIMULADOR.ORDEM|98=0|108=30|10=212|8=FIX.4.2|9=80|35=A|34=3|49=CLIENT1|52=20210727-18:35:27.162000|56=SIMULADOR.ORDEM|98=0|108=30|10=219|8=FIX.4.2|9=132|35=D|34=4|49=CLIENT1|52=20210727-18:35:29.543000|56=SIMULADOR.ORDEM|11=1|21=1|38=10|40=2|44=10|54=1|55=rs|59=0|60=20210727-18:35:29|10=216|8=FIX.4.2|9=80|35=A|34=5|49=CLIENT1|52=20210727-18:35:30.178000|56=SIMULADOR.ORDEM|98=0|108=30|10=222|8=FIX.4.2|9=80|35=A|34=6|49=CLIENT1|52=20210727-18:35:33.181000|56=SIMULADOR.ORDEM|98=0|108=30|10=220|8=FIX.4.2|9=80|35=A|34=7|49=CLIENT1|52=20210727-18:35:36.207000|56=SIMULADOR.ORDEM|98=0|108=30|10=223|8=FIX.4.2|9=80|35=A|34=8|49=CLIENT1|52=20210727-18:35:39.236000|56=SIMULADOR.ORDEM|98=0|108=30|10=229|8=FIX.4.2|9=80|35=A|34=9|49=CLIENT1|52=20210727-18:35:42.269000|56=SIMULADOR.ORDEM|98=0|108=30|10=230|8=FIX.4.2|9=81|35=A|34=10|49=CLIENT1|52=20210727-18:35:45.294000|56=SIMULADOR.ORDEM|98=0|108=30|10=016|8=FIX.4.2|9=81|35=A|34=11|49=CLIENT1|52=20210727-18:35:48.301000|56=SIMULADOR.ORDEM|98=0|108=30|10=009|8=FIX.4.2|9=81|35=A|34=12|49=CLIENT1|52=20210727-18:35:51.313000|56=SIMULADOR.ORDEM|98=0|108=30|10=007|8=FIX.4.2|9=81|35=A|34=13|49=CLIENT1|52=20210727-18:35:54.352000|56=SIMULADOR.ORDEM|98=0|108=30|10=014|8=FIX.4.2|9=81|35=A|34=14|49=CLIENT1|52=20210727-18:35:57.360000|56=SIMULADOR.ORDEM|98=0|108=30|10=017|8=FIX.4.2|9=81|35=A|34=15|49=CLIENT1|52=20210727-18:36:00.375000|56=SIMULADOR.ORDEM|98=0|108=30|10=013|8=FIX.4.2|9=81|35=A|34=16|49=CLIENT1|52=20210727-18:36:03.395000|56=SIMULADOR.ORDEM|98=0|108=30|10=019|