8=FIX.4.2|9=77|35=A|34=1|49=SIMULADOR.ORDEM|52=20210727-03:54:34.893|56=CLIENT1|98=0|108=30|10=083|8=FIX.4.2|9=125|35=8|34=2|49=SIMULADOR.ORDEM|52=20210727-03:54:47.562|56=CLIENT1|6=1|14=10000|17=1|20=0|37=1|39=0|54=1|55=rs|150=0|151=10000|10=027|8=FIX.4.2|9=129|35=8|34=3|49=SIMULADOR.ORDEM|52=20210727-03:54:53.834|56=CLIENT1|6=10000|14=10000|17=2|20=4|37=1|39=4|54=1|55=rs|150=4|151=10000|10=236|