8=FIX.4.2|9=77|35=A|34=1|49=SIMULADOR.ORDEM|52=20210727-04:46:34.644|56=CLIENT1|98=0|108=30|10=079|8=FIX.4.2|9=74|35=2|34=2|49=SIMULADOR.ORDEM|52=20210727-04:46:34.647|56=CLIENT1|7=1|16=0|10=163|8=FIX.4.2|9=77|35=A|34=3|49=SIMULADOR.ORDEM|52=20210727-04:46:38.880|56=CLIENT1|98=0|108=30|10=087|8=FIX.4.2|9=143|35=8|34=4|49=SIMULADOR.ORDEM|52=20210727-04:46:41.540|56=CLIENT1|6=0.05|14=50000|17=1|20=0|37=1080838667|39=0|54=1|55=ERICB.ST|150=0|151=50000|10=226|8=FIX.4.2|9=143|35=8|34=5|49=SIMULADOR.ORDEM|52=20210727-04:46:49.764|56=CLIENT1|6=0.05|14=50000|17=2|20=0|37=1080838668|39=0|54=1|55=ERICB.ST|150=0|151=50000|10=245|8=FIX.4.2|9=143|35=8|34=6|49=SIMULADOR.ORDEM|52=20210727-04:48:12.800|56=CLIENT1|6=0.05|14=50000|17=5|20=4|37=1080838668|39=4|54=1|55=ERICB.ST|150=4|151=50000|10=244|8=FIX.4.2|9=74|35=1|34=7|49=SIMULADOR.ORDEM|52=20210727-04:48:12.803|56=CLIENT1|112=TEST|10=054|