8=FIX.4.2|9=77|35=A|34=1|49=SIMULADOR.ORDEM|52=20210726-19:19:26.482|56=CLIENT1|98=0|108=30|10=085|8=FIX.4.2|9=74|35=2|34=2|49=SIMULADOR.ORDEM|52=20210726-19:19:26.484|56=CLIENT1|7=1|16=0|10=168|8=FIX.4.2|9=77|35=A|34=3|49=SIMULADOR.ORDEM|52=20210726-19:19:33.670|56=CLIENT1|98=0|108=30|10=084|8=FIX.4.2|9=134|35=8|34=4|49=SIMULADOR.ORDEM|52=20210726-19:19:36.357|56=CLIENT1|6=100|14=100|17=1|20=0|37=333665239|39=0|54=1|55=[N/A]|150=0|151=100|10=252|8=FIX.4.2|9=77|35=A|34=5|49=SIMULADOR.ORDEM|52=20210726-19:22:14.455|56=CLIENT1|98=0|108=30|10=080|8=FIX.4.2|9=133|35=8|34=6|49=SIMULADOR.ORDEM|52=20210726-19:22:22.412|56=CLIENT1|6=25|14=100|17=1|20=0|37=394482179|39=0|54=1|55=[N/A]|150=0|151=100|10=199|