8=FIX.4.2|9=77|35=A|34=1|49=SIMULADOR.ORDEM|52=20210725-03:15:41.014|56=CLIENT1|98=0|108=30|10=061|8=FIX.4.2|9=188|35=8|34=2|49=SIMULADOR.ORDEM|52=20210725-03:15:49.629|56=CLIENT1|6=-9.25596313493178e61|14=-9.25596313493178e61|17=1|20=0|37=895665895|39=0|54=1|55=ERICB.ST|150=0|151=-9.25596313493178e61|10=233|