8=FIX.4.2|9=77|35=A|34=1|49=SIMULADOR.ORDEM|52=20210723-22:48:32.689|56=CLIENT1|98=0|108=30|10=084|8=FIX.4.2|9=74|35=2|34=2|49=SIMULADOR.ORDEM|52=20210723-22:48:32.692|56=CLIENT1|7=1|16=0|10=159|8=FIX.4.2|9=77|35=A|34=3|49=SIMULADOR.ORDEM|52=20210723-23:19:39.256|56=CLIENT1|98=0|108=30|10=082|8=FIX.4.2|9=74|35=2|34=4|49=SIMULADOR.ORDEM|52=20210723-23:19:39.258|56=CLIENT1|7=1|16=0|10=165|8=FIX.4.2|9=123|35=3|34=5|49=SIMULADOR.ORDEM|52=20210723-23:20:09.772|56=CLIENT1|45=25|58=Tag specified without a value|371=11|372=9|373=4|10=061|8=FIX.4.2|9=74|35=1|34=6|49=SIMULADOR.ORDEM|52=20210723-23:20:15.855|56=CLIENT1|112=TEST|10=050|8=FIX.4.2|9=114|35=3|34=7|49=SIMULADOR.ORDEM|52=20210723-23:20:20.392|56=CLIENT1|45=27|58=Required tag missing|371=73|372=E|373=1|10=038|8=FIX.4.2|9=77|35=A|34=8|49=SIMULADOR.ORDEM|52=20210723-23:20:47.106|56=CLIENT1|98=0|108=30|10=072|8=FIX.4.2|9=74|35=2|34=9|49=SIMULADOR.ORDEM|52=20210723-23:20:47.109|56=CLIENT1|7=1|16=0|10=156|8=FIX.4.2|9=66|35=0|34=10|49=SIMULADOR.ORDEM|52=20210723-23:21:21.847|56=CLIENT1|10=074|8=FIX.4.2|9=75|35=1|34=11|49=SIMULADOR.ORDEM|52=20210723-23:21:23.876|56=CLIENT1|112=TEST|10=098|8=FIX.4.2|9=124|35=3|34=12|49=SIMULADOR.ORDEM|52=20210723-23:21:36.260|56=CLIENT1|45=68|58=Tag specified without a value|371=11|372=9|373=4|10=108|