8=FIX.4.2|9=77|35=A|34=1|49=SIMULADOR.ORDEM|52=20210723-22:48:32.689|56=CLIENT1|98=0|108=30|10=084|8=FIX.4.2|9=74|35=2|34=2|49=SIMULADOR.ORDEM|52=20210723-22:48:32.692|56=CLIENT1|7=1|16=0|10=159|